{
	"SimpleStorage.sol": {
		"SimpleCounter": {
			"abi": [
				{
					"inputs": [],
					"name": "decrement",
					"outputs": [],
					"stateMutability": "nonpayable",
					"type": "function"
				},
				{
					"inputs": [],
					"name": "getCount",
					"outputs": [
						{
							"internalType": "int256",
							"name": "",
							"type": "int256"
						}
					],
					"stateMutability": "view",
					"type": "function"
				},
				{
					"inputs": [],
					"name": "increment",
					"outputs": [],
					"stateMutability": "nonpayable",
					"type": "function"
				},
				{
					"inputs": [
						{
							"internalType": "int256",
							"name": "newCount",
							"type": "int256"
						}
					],
					"name": "setCount",
					"outputs": [],
					"stateMutability": "nonpayable",
					"type": "function"
				}
			],
			"devdoc": {
				"kind": "dev",
				"methods": {},
				"version": 1
			},
			"evm": {
				"assembly": "    /* \"SimpleStorage.sol\":374:722  contract SimpleCounter {\r... */\n  mstore(0x40, 0x80)\n  callvalue\n  dup1\n  iszero\n  tag_1\n  jumpi\n  0x00\n  dup1\n  revert\ntag_1:\n  pop\n  dataSize(sub_0)\n  dup1\n  dataOffset(sub_0)\n  0x00\n  codecopy\n  0x00\n  return\nstop\n\nsub_0: assembly {\n        /* \"SimpleStorage.sol\":374:722  contract SimpleCounter {\r... */\n      mstore(0x40, 0x80)\n      callvalue\n      dup1\n      iszero\n      tag_1\n      jumpi\n      0x00\n      dup1\n      revert\n    tag_1:\n      pop\n      jumpi(tag_2, lt(calldatasize, 0x04))\n      shr(0xe0, calldataload(0x00))\n      dup1\n      0x2baeceb7\n      eq\n      tag_3\n      jumpi\n      dup1\n      0xa87d942c\n      eq\n      tag_4\n      jumpi\n      dup1\n      0xd09de08a\n      eq\n      tag_5\n      jumpi\n      dup1\n      0xfc583c8d\n      eq\n      tag_6\n      jumpi\n    tag_2:\n      0x00\n      dup1\n      revert\n        /* \"SimpleStorage.sol\":662:719  function decrement() public {\r... */\n    tag_3:\n      tag_7\n      tag_8\n      jump\t// in\n    tag_7:\n      stop\n        /* \"SimpleStorage.sol\":512:589  function getCount() public view returns (int) {\r... */\n    tag_4:\n      tag_9\n      tag_10\n      jump\t// in\n    tag_9:\n      mload(0x40)\n      tag_11\n      swap2\n      swap1\n      tag_12\n      jump\t// in\n    tag_11:\n      mload(0x40)\n      dup1\n      swap2\n      sub\n      swap1\n      return\n        /* \"SimpleStorage.sol\":597:654  function increment() public {\r... */\n    tag_5:\n      tag_13\n      tag_14\n      jump\t// in\n    tag_13:\n      stop\n        /* \"SimpleStorage.sol\":430:504  function setCount(int newCount) public {\r... */\n    tag_6:\n      tag_15\n      0x04\n      dup1\n      calldatasize\n      sub\n      dup2\n      add\n      swap1\n      tag_16\n      swap2\n      swap1\n      tag_17\n      jump\t// in\n    tag_16:\n      tag_18\n      jump\t// in\n    tag_15:\n      stop\n        /* \"SimpleStorage.sol\":662:719  function decrement() public {\r... */\n    tag_8:\n        /* \"SimpleStorage.sol\":710:711  1 */\n      0x01\n        /* \"SimpleStorage.sol\":701:706  count */\n      0x00\n      dup1\n        /* \"SimpleStorage.sol\":701:711  count -= 1 */\n      dup3\n      dup3\n      sload\n      tag_20\n      swap2\n      swap1\n      tag_21\n      jump\t// in\n    tag_20:\n      swap3\n      pop\n      pop\n      dup2\n      swap1\n      sstore\n      pop\n        /* \"SimpleStorage.sol\":662:719  function decrement() public {\r... */\n      jump\t// out\n        /* \"SimpleStorage.sol\":512:589  function getCount() public view returns (int) {\r... */\n    tag_10:\n        /* \"SimpleStorage.sol\":553:556  int */\n      0x00\n        /* \"SimpleStorage.sol\":576:581  count */\n      dup1\n      sload\n        /* \"SimpleStorage.sol\":569:581  return count */\n      swap1\n      pop\n        /* \"SimpleStorage.sol\":512:589  function getCount() public view returns (int) {\r... */\n      swap1\n      jump\t// out\n        /* \"SimpleStorage.sol\":597:654  function increment() public {\r... */\n    tag_14:\n        /* \"SimpleStorage.sol\":645:646  1 */\n      0x01\n        /* \"SimpleStorage.sol\":636:641  count */\n      0x00\n      dup1\n        /* \"SimpleStorage.sol\":636:646  count += 1 */\n      dup3\n      dup3\n      sload\n      tag_24\n      swap2\n      swap1\n      tag_25\n      jump\t// in\n    tag_24:\n      swap3\n      pop\n      pop\n      dup2\n      swap1\n      sstore\n      pop\n        /* \"SimpleStorage.sol\":597:654  function increment() public {\r... */\n      jump\t// out\n        /* \"SimpleStorage.sol\":430:504  function setCount(int newCount) public {\r... */\n    tag_18:\n        /* \"SimpleStorage.sol\":488:496  newCount */\n      dup1\n        /* \"SimpleStorage.sol\":480:485  count */\n      0x00\n        /* \"SimpleStorage.sol\":480:496  count = newCount */\n      dup2\n      swap1\n      sstore\n      pop\n        /* \"SimpleStorage.sol\":430:504  function setCount(int newCount) public {\r... */\n      pop\n      jump\t// out\n        /* \"#utility.yul\":7:144   */\n    tag_28:\n      0x00\n        /* \"#utility.yul\":90:96   */\n      dup2\n        /* \"#utility.yul\":77:97   */\n      calldataload\n        /* \"#utility.yul\":68:97   */\n      swap1\n      pop\n        /* \"#utility.yul\":106:138   */\n      tag_30\n        /* \"#utility.yul\":132:137   */\n      dup2\n        /* \"#utility.yul\":106:138   */\n      tag_31\n      jump\t// in\n    tag_30:\n        /* \"#utility.yul\":58:144   */\n      swap3\n      swap2\n      pop\n      pop\n      jump\t// out\n        /* \"#utility.yul\":150:410   */\n    tag_17:\n      0x00\n        /* \"#utility.yul\":257:259   */\n      0x20\n        /* \"#utility.yul\":245:254   */\n      dup3\n        /* \"#utility.yul\":236:243   */\n      dup5\n        /* \"#utility.yul\":232:255   */\n      sub\n        /* \"#utility.yul\":228:260   */\n      slt\n        /* \"#utility.yul\":225:227   */\n      iszero\n      tag_33\n      jumpi\n        /* \"#utility.yul\":273:274   */\n      0x00\n        /* \"#utility.yul\":270:271   */\n      dup1\n        /* \"#utility.yul\":263:275   */\n      revert\n        /* \"#utility.yul\":225:227   */\n    tag_33:\n        /* \"#utility.yul\":316:317   */\n      0x00\n        /* \"#utility.yul\":341:393   */\n      tag_34\n        /* \"#utility.yul\":385:392   */\n      dup5\n        /* \"#utility.yul\":376:382   */\n      dup3\n        /* \"#utility.yul\":365:374   */\n      dup6\n        /* \"#utility.yul\":361:383   */\n      add\n        /* \"#utility.yul\":341:393   */\n      tag_28\n      jump\t// in\n    tag_34:\n        /* \"#utility.yul\":331:393   */\n      swap2\n      pop\n        /* \"#utility.yul\":287:403   */\n      pop\n        /* \"#utility.yul\":215:410   */\n      swap3\n      swap2\n      pop\n      pop\n      jump\t// out\n        /* \"#utility.yul\":416:531   */\n    tag_35:\n        /* \"#utility.yul\":501:524   */\n      tag_37\n        /* \"#utility.yul\":518:523   */\n      dup2\n        /* \"#utility.yul\":501:524   */\n      tag_38\n      jump\t// in\n    tag_37:\n        /* \"#utility.yul\":496:499   */\n      dup3\n        /* \"#utility.yul\":489:525   */\n      mstore\n        /* \"#utility.yul\":479:531   */\n      pop\n      pop\n      jump\t// out\n        /* \"#utility.yul\":537:755   */\n    tag_12:\n      0x00\n        /* \"#utility.yul\":666:668   */\n      0x20\n        /* \"#utility.yul\":655:664   */\n      dup3\n        /* \"#utility.yul\":651:669   */\n      add\n        /* \"#utility.yul\":643:669   */\n      swap1\n      pop\n        /* \"#utility.yul\":679:748   */\n      tag_40\n        /* \"#utility.yul\":745:746   */\n      0x00\n        /* \"#utility.yul\":734:743   */\n      dup4\n        /* \"#utility.yul\":730:747   */\n      add\n        /* \"#utility.yul\":721:727   */\n      dup5\n        /* \"#utility.yul\":679:748   */\n      tag_35\n      jump\t// in\n    tag_40:\n        /* \"#utility.yul\":633:755   */\n      swap3\n      swap2\n      pop\n      pop\n      jump\t// out\n        /* \"#utility.yul\":761:1286   */\n    tag_25:\n      0x00\n        /* \"#utility.yul\":819:838   */\n      tag_42\n        /* \"#utility.yul\":836:837   */\n      dup3\n        /* \"#utility.yul\":819:838   */\n      tag_38\n      jump\t// in\n    tag_42:\n        /* \"#utility.yul\":814:838   */\n      swap2\n      pop\n        /* \"#utility.yul\":852:871   */\n      tag_43\n        /* \"#utility.yul\":869:870   */\n      dup4\n        /* \"#utility.yul\":852:871   */\n      tag_38\n      jump\t// in\n    tag_43:\n        /* \"#utility.yul\":847:871   */\n      swap3\n      pop\n        /* \"#utility.yul\":1040:1041   */\n      dup2\n        /* \"#utility.yul\":972:1038   */\n      0x7fffffffffffffffffffffffffffffffffffffffffffffffffffffffffffffff\n        /* \"#utility.yul\":968:1042   */\n      sub\n        /* \"#utility.yul\":965:966   */\n      dup4\n        /* \"#utility.yul\":961:1043   */\n      sgt\n        /* \"#utility.yul\":956:957   */\n      0x00\n        /* \"#utility.yul\":953:954   */\n      dup4\n        /* \"#utility.yul\":949:958   */\n      slt\n        /* \"#utility.yul\":942:959   */\n      iszero\n        /* \"#utility.yul\":938:1044   */\n      and\n        /* \"#utility.yul\":935:937   */\n      iszero\n      tag_44\n      jumpi\n        /* \"#utility.yul\":1047:1065   */\n      tag_45\n      tag_46\n      jump\t// in\n    tag_45:\n        /* \"#utility.yul\":935:937   */\n    tag_44:\n        /* \"#utility.yul\":1227:1228   */\n      dup2\n        /* \"#utility.yul\":1159:1225   */\n      0x8000000000000000000000000000000000000000000000000000000000000000\n        /* \"#utility.yul\":1155:1229   */\n      sub\n        /* \"#utility.yul\":1152:1153   */\n      dup4\n        /* \"#utility.yul\":1148:1230   */\n      slt\n        /* \"#utility.yul\":1144:1145   */\n      0x00\n        /* \"#utility.yul\":1141:1142   */\n      dup4\n        /* \"#utility.yul\":1137:1146   */\n      slt\n        /* \"#utility.yul\":1133:1231   */\n      and\n        /* \"#utility.yul\":1130:1132   */\n      iszero\n      tag_47\n      jumpi\n        /* \"#utility.yul\":1234:1252   */\n      tag_48\n      tag_46\n      jump\t// in\n    tag_48:\n        /* \"#utility.yul\":1130:1132   */\n    tag_47:\n        /* \"#utility.yul\":1278:1279   */\n      dup3\n        /* \"#utility.yul\":1275:1276   */\n      dup3\n        /* \"#utility.yul\":1271:1280   */\n      add\n        /* \"#utility.yul\":1264:1280   */\n      swap1\n      pop\n        /* \"#utility.yul\":804:1286   */\n      swap3\n      swap2\n      pop\n      pop\n      jump\t// out\n        /* \"#utility.yul\":1292:1819   */\n    tag_21:\n      0x00\n        /* \"#utility.yul\":1351:1370   */\n      tag_50\n        /* \"#utility.yul\":1368:1369   */\n      dup3\n        /* \"#utility.yul\":1351:1370   */\n      tag_38\n      jump\t// in\n    tag_50:\n        /* \"#utility.yul\":1346:1370   */\n      swap2\n      pop\n        /* \"#utility.yul\":1384:1403   */\n      tag_51\n        /* \"#utility.yul\":1401:1402   */\n      dup4\n        /* \"#utility.yul\":1384:1403   */\n      tag_38\n      jump\t// in\n    tag_51:\n        /* \"#utility.yul\":1379:1403   */\n      swap3\n      pop\n        /* \"#utility.yul\":1573:1574   */\n      dup3\n        /* \"#utility.yul\":1505:1571   */\n      0x8000000000000000000000000000000000000000000000000000000000000000\n        /* \"#utility.yul\":1501:1575   */\n      add\n        /* \"#utility.yul\":1498:1499   */\n      dup3\n        /* \"#utility.yul\":1494:1576   */\n      slt\n        /* \"#utility.yul\":1489:1490   */\n      0x00\n        /* \"#utility.yul\":1486:1487   */\n      dup5\n        /* \"#utility.yul\":1482:1491   */\n      slt\n        /* \"#utility.yul\":1475:1492   */\n      iszero\n        /* \"#utility.yul\":1471:1577   */\n      and\n        /* \"#utility.yul\":1468:1470   */\n      iszero\n      tag_52\n      jumpi\n        /* \"#utility.yul\":1580:1598   */\n      tag_53\n      tag_46\n      jump\t// in\n    tag_53:\n        /* \"#utility.yul\":1468:1470   */\n    tag_52:\n        /* \"#utility.yul\":1759:1760   */\n      dup3\n        /* \"#utility.yul\":1691:1757   */\n      0x7fffffffffffffffffffffffffffffffffffffffffffffffffffffffffffffff\n        /* \"#utility.yul\":1687:1761   */\n      add\n        /* \"#utility.yul\":1684:1685   */\n      dup3\n        /* \"#utility.yul\":1680:1762   */\n      sgt\n        /* \"#utility.yul\":1676:1677   */\n      0x00\n        /* \"#utility.yul\":1673:1674   */\n      dup5\n        /* \"#utility.yul\":1669:1678   */\n      slt\n        /* \"#utility.yul\":1665:1763   */\n      and\n        /* \"#utility.yul\":1662:1664   */\n      iszero\n      tag_54\n      jumpi\n        /* \"#utility.yul\":1766:1784   */\n      tag_55\n      tag_46\n      jump\t// in\n    tag_55:\n        /* \"#utility.yul\":1662:1664   */\n    tag_54:\n        /* \"#utility.yul\":1811:1812   */\n      dup3\n        /* \"#utility.yul\":1808:1809   */\n      dup3\n        /* \"#utility.yul\":1804:1813   */\n      sub\n        /* \"#utility.yul\":1796:1813   */\n      swap1\n      pop\n        /* \"#utility.yul\":1336:1819   */\n      swap3\n      swap2\n      pop\n      pop\n      jump\t// out\n        /* \"#utility.yul\":1825:1901   */\n    tag_38:\n      0x00\n        /* \"#utility.yul\":1890:1895   */\n      dup2\n        /* \"#utility.yul\":1879:1895   */\n      swap1\n      pop\n        /* \"#utility.yul\":1869:1901   */\n      swap2\n      swap1\n      pop\n      jump\t// out\n        /* \"#utility.yul\":1907:2087   */\n    tag_46:\n        /* \"#utility.yul\":1955:2032   */\n      0x4e487b7100000000000000000000000000000000000000000000000000000000\n        /* \"#utility.yul\":1952:1953   */\n      0x00\n        /* \"#utility.yul\":1945:2033   */\n      mstore\n        /* \"#utility.yul\":2052:2056   */\n      0x11\n        /* \"#utility.yul\":2049:2050   */\n      0x04\n        /* \"#utility.yul\":2042:2057   */\n      mstore\n        /* \"#utility.yul\":2076:2080   */\n      0x24\n        /* \"#utility.yul\":2073:2074   */\n      0x00\n        /* \"#utility.yul\":2066:2081   */\n      revert\n        /* \"#utility.yul\":2093:2213   */\n    tag_31:\n        /* \"#utility.yul\":2165:2188   */\n      tag_59\n        /* \"#utility.yul\":2182:2187   */\n      dup2\n        /* \"#utility.yul\":2165:2188   */\n      tag_38\n      jump\t// in\n    tag_59:\n        /* \"#utility.yul\":2158:2163   */\n      dup2\n        /* \"#utility.yul\":2155:2189   */\n      eq\n        /* \"#utility.yul\":2145:2147   */\n      tag_60\n      jumpi\n        /* \"#utility.yul\":2203:2204   */\n      0x00\n        /* \"#utility.yul\":2200:2201   */\n      dup1\n        /* \"#utility.yul\":2193:2205   */\n      revert\n        /* \"#utility.yul\":2145:2147   */\n    tag_60:\n        /* \"#utility.yul\":2135:2213   */\n      pop\n      jump\t// out\n\n    auxdata: 0xa2646970667358221220558bb1177ea454e9e3b518d04beebfd0109406a2282510c8ef74e1b3e831a29c64736f6c63430008000033\n}\n",
				"bytecode": {
					"linkReferences": {},
					"object": "608060405234801561001057600080fd5b506102fe806100206000396000f3fe608060405234801561001057600080fd5b506004361061004c5760003560e01c80632baeceb714610051578063a87d942c1461005b578063d09de08a14610079578063fc583c8d14610083575b600080fd5b61005961009f565b005b6100636100ba565b6040516100709190610135565b60405180910390f35b6100816100c3565b005b61009d600480360381019061009891906100fd565b6100de565b005b60016000808282546100b191906101e4565b92505081905550565b60008054905090565b60016000808282546100d59190610150565b92505081905550565b8060008190555050565b6000813590506100f7816102b1565b92915050565b60006020828403121561010f57600080fd5b600061011d848285016100e8565b91505092915050565b61012f81610278565b82525050565b600060208201905061014a6000830184610126565b92915050565b600061015b82610278565b915061016683610278565b9250817f7fffffffffffffffffffffffffffffffffffffffffffffffffffffffffffffff038313600083121516156101a1576101a0610282565b5b817f80000000000000000000000000000000000000000000000000000000000000000383126000831216156101d9576101d8610282565b5b828201905092915050565b60006101ef82610278565b91506101fa83610278565b9250827f80000000000000000000000000000000000000000000000000000000000000000182126000841215161561023557610234610282565b5b827f7fffffffffffffffffffffffffffffffffffffffffffffffffffffffffffffff01821360008412161561026d5761026c610282565b5b828203905092915050565b6000819050919050565b7f4e487b7100000000000000000000000000000000000000000000000000000000600052601160045260246000fd5b6102ba81610278565b81146102c557600080fd5b5056fea2646970667358221220558bb1177ea454e9e3b518d04beebfd0109406a2282510c8ef74e1b3e831a29c64736f6c63430008000033",
					"opcodes": "PUSH1 0x80 PUSH1 0x40 MSTORE CALLVALUE DUP1 ISZERO PUSH2 0x10 JUMPI PUSH1 0x0 DUP1 REVERT JUMPDEST POP PUSH2 0x2FE DUP1 PUSH2 0x20 PUSH1 0x0 CODECOPY PUSH1 0x0 RETURN INVALID PUSH1 0x80 PUSH1 0x40 MSTORE CALLVALUE DUP1 ISZERO PUSH2 0x10 JUMPI PUSH1 0x0 DUP1 REVERT JUMPDEST POP PUSH1 0x4 CALLDATASIZE LT PUSH2 0x4C JUMPI PUSH1 0x0 CALLDATALOAD PUSH1 0xE0 SHR DUP1 PUSH4 0x2BAECEB7 EQ PUSH2 0x51 JUMPI DUP1 PUSH4 0xA87D942C EQ PUSH2 0x5B JUMPI DUP1 PUSH4 0xD09DE08A EQ PUSH2 0x79 JUMPI DUP1 PUSH4 0xFC583C8D EQ PUSH2 0x83 JUMPI JUMPDEST PUSH1 0x0 DUP1 REVERT JUMPDEST PUSH2 0x59 PUSH2 0x9F JUMP JUMPDEST STOP JUMPDEST PUSH2 0x63 PUSH2 0xBA JUMP JUMPDEST PUSH1 0x40 MLOAD PUSH2 0x70 SWAP2 SWAP1 PUSH2 0x135 JUMP JUMPDEST PUSH1 0x40 MLOAD DUP1 SWAP2 SUB SWAP1 RETURN JUMPDEST PUSH2 0x81 PUSH2 0xC3 JUMP JUMPDEST STOP JUMPDEST PUSH2 0x9D PUSH1 0x4 DUP1 CALLDATASIZE SUB DUP2 ADD SWAP1 PUSH2 0x98 SWAP2 SWAP1 PUSH2 0xFD JUMP JUMPDEST PUSH2 0xDE JUMP JUMPDEST STOP JUMPDEST PUSH1 0x1 PUSH1 0x0 DUP1 DUP3 DUP3 SLOAD PUSH2 0xB1 SWAP2 SWAP1 PUSH2 0x1E4 JUMP JUMPDEST SWAP3 POP POP DUP2 SWAP1 SSTORE POP JUMP JUMPDEST PUSH1 0x0 DUP1 SLOAD SWAP1 POP SWAP1 JUMP JUMPDEST PUSH1 0x1 PUSH1 0x0 DUP1 DUP3 DUP3 SLOAD PUSH2 0xD5 SWAP2 SWAP1 PUSH2 0x150 JUMP JUMPDEST SWAP3 POP POP DUP2 SWAP1 SSTORE POP JUMP JUMPDEST DUP1 PUSH1 0x0 DUP2 SWAP1 SSTORE POP POP JUMP JUMPDEST PUSH1 0x0 DUP2 CALLDATALOAD SWAP1 POP PUSH2 0xF7 DUP2 PUSH2 0x2B1 JUMP JUMPDEST SWAP3 SWAP2 POP POP JUMP JUMPDEST PUSH1 0x0 PUSH1 0x20 DUP3 DUP5 SUB SLT ISZERO PUSH2 0x10F JUMPI PUSH1 0x0 DUP1 REVERT JUMPDEST PUSH1 0x0 PUSH2 0x11D DUP5 DUP3 DUP6 ADD PUSH2 0xE8 JUMP JUMPDEST SWAP2 POP POP SWAP3 SWAP2 POP POP JUMP JUMPDEST PUSH2 0x12F DUP2 PUSH2 0x278 JUMP JUMPDEST DUP3 MSTORE POP POP JUMP JUMPDEST PUSH1 0x0 PUSH1 0x20 DUP3 ADD SWAP1 POP PUSH2 0x14A PUSH1 0x0 DUP4 ADD DUP5 PUSH2 0x126 JUMP JUMPDEST SWAP3 SWAP2 POP POP JUMP JUMPDEST PUSH1 0x0 PUSH2 0x15B DUP3 PUSH2 0x278 JUMP JUMPDEST SWAP2 POP PUSH2 0x166 DUP4 PUSH2 0x278 JUMP JUMPDEST SWAP3 POP DUP2 PUSH32 0x7FFFFFFFFFFFFFFFFFFFFFFFFFFFFFFFFFFFFFFFFFFFFFFFFFFFFFFFFFFFFFFF SUB DUP4 SGT PUSH1 0x0 DUP4 SLT ISZERO AND ISZERO PUSH2 0x1A1 JUMPI PUSH2 0x1A0 PUSH2 0x282 JUMP JUMPDEST JUMPDEST DUP2 PUSH32 0x8000000000000000000000000000000000000000000000000000000000000000 SUB DUP4 SLT PUSH1 0x0 DUP4 SLT AND ISZERO PUSH2 0x1D9 JUMPI PUSH2 0x1D8 PUSH2 0x282 JUMP JUMPDEST JUMPDEST DUP3 DUP3 ADD SWAP1 POP SWAP3 SWAP2 POP POP JUMP JUMPDEST PUSH1 0x0 PUSH2 0x1EF DUP3 PUSH2 0x278 JUMP JUMPDEST SWAP2 POP PUSH2 0x1FA DUP4 PUSH2 0x278 JUMP JUMPDEST SWAP3 POP DUP3 PUSH32 0x8000000000000000000000000000000000000000000000000000000000000000 ADD DUP3 SLT PUSH1 0x0 DUP5 SLT ISZERO AND ISZERO PUSH2 0x235 JUMPI PUSH2 0x234 PUSH2 0x282 JUMP JUMPDEST JUMPDEST DUP3 PUSH32 0x7FFFFFFFFFFFFFFFFFFFFFFFFFFFFFFFFFFFFFFFFFFFFFFFFFFFFFFFFFFFFFFF ADD DUP3 SGT PUSH1 0x0 DUP5 SLT AND ISZERO PUSH2 0x26D JUMPI PUSH2 0x26C PUSH2 0x282 JUMP JUMPDEST JUMPDEST DUP3 DUP3 SUB SWAP1 POP SWAP3 SWAP2 POP POP JUMP JUMPDEST PUSH1 0x0 DUP2 SWAP1 POP SWAP2 SWAP1 POP JUMP JUMPDEST PUSH32 0x4E487B7100000000000000000000000000000000000000000000000000000000 PUSH1 0x0 MSTORE PUSH1 0x11 PUSH1 0x4 MSTORE PUSH1 0x24 PUSH1 0x0 REVERT JUMPDEST PUSH2 0x2BA DUP2 PUSH2 0x278 JUMP JUMPDEST DUP2 EQ PUSH2 0x2C5 JUMPI PUSH1 0x0 DUP1 REVERT JUMPDEST POP JUMP INVALID LOG2 PUSH5 0x6970667358 0x22 SLT KECCAK256 SSTORE DUP12 0xB1 OR PUSH31 0xA454E9E3B518D04BEEBFD0109406A2282510C8EF74E1B3E831A29C64736F6C PUSH4 0x43000800 STOP CALLER "
				},
				"gasEstimates": {
					"creation": {
						"codeDepositCost": "153200",
						"executionCost": "196",
						"totalCost": "153396"
					},
					"external": {
						"decrement()": "infinite",
						"getCount()": "1137",
						"increment()": "infinite",
						"setCount(int256)": "20464"
					}
				},
				"methodIdentifiers": {
					"decrement()": "2baeceb7",
					"getCount()": "a87d942c",
					"increment()": "d09de08a",
					"setCount(int256)": "fc583c8d"
				}
			},
			"storageLayout": {
				"storage": [
					{
						"astId": 3,
						"contract": "SimpleStorage.sol:SimpleCounter",
						"label": "count",
						"offset": 0,
						"slot": "0",
						"type": "t_int256"
					}
				],
				"types": {
					"t_int256": {
						"encoding": "inplace",
						"label": "int256",
						"numberOfBytes": "32"
					}
				}
			},
			"userdoc": {
				"kind": "user",
				"methods": {},
				"version": 1
			}
		}
	}
}